:100000000C942A000C9434000C9434000C943400AA
:100010000C9434000C9434000C9434000C94340090
:100020000C9434000C9434000C9434000C94340080
:100030000C9434000C9434000C9434000C94340070
:100040000C9434000C9434000C9434000C94340060
:100050000C94340011241FBECFE5D4E0DEBFCDBF29
:100060000E9446000C946D000C94000080E487B957
:1000700087E886B9089597B18770987F892B87B9EB
:10008000369A3699FECF84B195B108950E94360014
:100090001ABA8FEF87BB8BBB88BBC1E0D0E080E092
:1000A0000E943B009C0183E0369527958A95E1F7F5
:1000B00097E0492FB901092E02C0769567950A94F9
:1000C000E2F7672B41F0CE0101C0880F4A95EAF7AD
:0E00D000809588BBE4CF9150ECCFF894FFCF21
:00000001FF
